:100000000C9462000C948A000C948A000C948A0070
:100010000C948A000C948A000C948A000C9462045C
:100020000C948A000C948A000C948A000C948A0028
:100030000C948A000C948A000C948A000C948A0018
:100040000C9418040C948A000C94E6030C94C003DE
:100050000C948A000C948A000C948A000C948A00F8
:100060000C948A000C948A000000000023002600F3
:10007000290000000008000201000003040700003E
:1000800000000000000000000000250028002B00F8
:1000900000000000240027002A00040404040404D3
:1000A0000404020202020202030303030303010227
:1000B00004081020408001020408102001020408F6
:1000C0001020330511241FBECFEFD8E0DEBFCDBF17
:1000D00012E0A0E0B1E0E6EEF7E102C005900D927B
:1000E000AE32B107D9F724E0AEE2B2E001C01D9212
:1000F000A130B207E1F710E0C2E6D0E004C02197DA
:10010000FE010E94FE09C136D107C9F70E9472059F
:100110000C94F10B0C940000ECE1F3E0A089B189A0
:1001200082E08C93A485B5851C92A685B7858FEC5B
:100130008C93108EA489B58986E08C93A289B389AB
:100140008C9180618C93A289B3898C9188608C9307
:10015000A289B3898C9180688C930288F389E02D01
:1001600080818F7D8083089590E0FC01E255FF4FF0
:100170002491FC01E656FF4F8491882399F090E08A
:10018000880F991FFC01E057FF4FA591B491FC0126
:10019000EA57FF4F859194918FB7F894EC91E22B39
:1001A000EC938FBF08952091B0002F7D2093B00075
:1001B0001816190654F48130910539F0880F991FEB
:1001C000880F991F05970197F1F708952091B000C6
:1001D00020622093B0001816190654F4813091055E
:1001E00039F0880F991F880F991F05970197F1F72C
:1001F0000895CF92DF92EF92FF920F931F93CF93C8
:10020000DF936C017A018B01C0E0D0E0CE15DF05F1
:1002100089F0D8016D918D01D601ED91FC9101908D
:10022000F081E02DC6010995892B11F47E0102C0F1
:100230002196ECCFC701DF91CF911F910F91FF90D5
:10024000EF90DF90CF900895FC01918D828D9817EB
:1002500061F0828DDF01A80FB11D5D968C91928DAA
:100260009F5F9F73928F90E008958FEF9FEF0895A7
:10027000FC01918D828D981731F0828DE80FF11D70
:10028000858D90E008958FEF9FEF0895FC01918D8B
:10029000228D892F90E0805C9F4F821B91098F7384
:1002A000992708958CE193E00E94460121E0892B73
:1002B00009F420E0822F0895FC01848DDF01A80F4E
:1002C000B11DA35ABF4F2C91848D90E001968F737E
:1002D0009927848FA689B7892C93A089B1898C919D
:1002E00080648C93938D848D981306C00288F38963
:1002F000E02D80818F7D80830895EF92FF920F9390
:100300001F93CF93DF93EC0181E0888F9B8D8C8DC1
:10031000981305C0E889F989808185FD24C0F62EEF
:100320000B8D10E00F5F1F4F0F731127E02E8C8D88
:10033000E8120CC00FB607FCFACFE889F989808172
:1003400085FFF5CFCE010E945C01F1CF8B8DFE01C0
:10035000E80FF11DE35AFF4FF0820B8FEA89FB890A
:100360008081806207C0EE89FF896083E889F9890E
:1003700080818064808381E090E0DF91CF911F9144
:100380000F91FF90EF900895CF93DF93EC01888D4C
:100390008823C9F0EA89FB89808185FD05C0A88989
:1003A000B9898C9186FD0FC00FB607FCF5CF80810F
:1003B00085FFF2CFA889B9898C9185FFEDCFCE0159
:1003C0000E945C01E7CFDF91CF91089580E090E03B
:1003D000892B29F00E94520181110C94000008958C
:1003E000833081F028F4813099F08230A1F00895B3
:1003F0008730A9F08830B9F08430D1F48091800042
:100400008F7D03C0809180008F7780938000089556
:1004100084B58F7702C084B58F7D84BD08958091A7
:10042000B0008F7703C08091B0008F7D8093B000C3
:1004300008951F93CF93DF93282F30E0F901EE58F2
:10044000FF4F8491F901E255FF4FD491F901E6562F
:10045000FF4FC491CC23C9F0162F81110E94F001E7
:10046000EC2FF0E0EE0FFF1FEA57FF4FA591B4917C
:100470008FB7F894111105C09C91ED2FE095E923F9
:1004800002C0EC91ED2BEC938FBFDF91CF911F91C8
:1004900008958E3008F08E508770806480937C00C1
:1004A00080917A00806480937A0080917A0086FD42
:1004B000FCCF809178002091790090E0922B0895F4
:1004C0003FB7F8948091040390910503A09106032F
:1004D000B091070326B5A89B05C02F3F19F00196E0
:1004E000A11DB11D3FBFBA2FA92F982F8827820FBA
:1004F000911DA11DB11DBC01CD0142E0660F771F0A
:10050000881F991F4A95D1F708958F929F92AF92B5
:10051000BF92CF92DF92EF92FF926B017C010E941B
:1005200060024B015C01C114D104E104F104F1F05B
:100530000E946002DC01CB0188199909AA09BB0954
:10054000883E9340A105B10570F321E0C21AD1089D
:10055000E108F10888EE880E83E0981EA11CB11C0A
:10056000C114D104E104F10419F7DDCFFF90EF903D
:10057000DF90CF90BF90AF909F908F9008952FB74E
:10058000F8946091000370910103809102039091AF
:1005900003032FBF089580910803882361F060E072
:1005A00086E00E94190268E770E080E090E00E9417
:1005B000850261E00BC061E086E00E94190268E7F5
:1005C00070E080E090E00E94850260E086E00C949C
:1005D00019028F929F92AF92BF92CF92DF92EF92C9
:1005E000FF92CF93DF934B015C011092700083E088
:1005F0000E94B40060E083E00E94190281E08093D1
:10060000B00089E08093B10082ED8093B30086E46E
:100610008093B40088E293E20E94E60084E991E1CD
:100620000E94D300C0E2D0E0C12CD12CE12C90E894
:10063000F92ED701C60188219921AA21BB21892B36
:100640008A2B8B2B39F080E392E00E94E6008AE946
:1006500096E006C080E392E00E94E60080E392E02C
:100660000E94D300F694E794D794C794219709F792
:1006700080E392E00E94E6008091B0008F7D80933D
:10068000B000DF91CF91FF90EF90DF90CF90BF90BF
:10069000AF909F908F9008950E94090A611571058F
:1006A00079F0FB0101900020E9F73197AF01461B7B
:1006B000570BDC01ED91FC910280F381E02D099450
:1006C00080E090E008954F925F926F927F92EF9258
:1006D000FF920F931F93CF93DF93CDB7DEB7A19710
:1006E0000FB6F894DEBF0FBECDBF7C01FA01CB017F
:1006F00019A2223008F42AE08E010F5D1F4F422E0E
:10070000512C612C712CBF01A30192010E948E0B10
:10071000F901CA01015011096A3014F4605D01C089
:10072000695CD8016C93232B242B252B61F7B8012E
:10073000C7010E944E03A1960FB6F894DEBF0FBE0C
:10074000CDBFDF91CF911F910F91FF90EF907F90E0
:100750006F905F904F9008950F931F93CF93DF9307
:10076000EC010E944E038C0163E271E0CE010E9415
:100770004E03800F911FDF91CF911F910F9108952C
:100780001F920F920FB60F9211242F933F934F9306
:100790005F936F937F938F939F93AF93BF93EF93E9
:1007A000FF938CE193E00E945C01FF91EF91BF9178
:1007B000AF919F918F917F916F915F914F913F91F9
:1007C0002F910F900FBE0F901F9018951F920F92B0
:1007D0000FB60F9211242F938F939F93EF93FF9354
:1007E000E0912C03F0912D038081E0913203F09190
:1007F000330382FD12C09081809135038F5F8F7328
:1008000020913603821751F0E0913503F0E0E45E69
:10081000FC4F958F8093350301C08081FF91EF914C
:100820009F918F912F910F900FBE0F901F90189551
:100830001F920F920FB60F9211242F933F938F9315
:100840009F93AF93BF938091000390910103A09178
:100850000203B09103033091FF0223E0230F2D37F1
:1008600020F40196A11DB11D05C026E8230F0296B4
:10087000A11DB11D2093FF028093000390930103FB
:10088000A0930203B09303038091040390910503A6
:10089000A0910603B09107030196A11DB11D80939D
:1008A000040390930503A0930603B0930703BF913D
:1008B000AF919F918F913F912F910F900FBE0F900D
:1008C0001F9018951F920F920FB60F9211242F931D
:1008D0003F934F935F936F937F938F939F93AF93C8
:1008E000BF93CF93DF93EF93FF9320912F0230E0DC
:1008F000F901EE58FF4F8491F901E255FF4FD49171
:10090000F901E656FF4FC491CC23A1F081110E945A
:10091000F001EC2FF0E0EE0FFF1FE859FF4FA5911B
:10092000B491EC91ED2331E020E009F430E0832F25
:10093000922F02C080E090E0209132023091330289
:100940002F5F3F4F309333022093320220913102C8
:10095000253618F026E020932E0220912E02243016
:10096000D9F128F4223069F02330D9F060C0253065
:1009700009F453C0263009F05AC021E02093FE024A
:1009800053C0009709F053C02091320230913302D6
:100990002436310508F443C01092FE021092310251
:1009A0001DC08130910509F042C0E091310221E083
:1009B0002E0F20933102F0E0209132023091330269
:1009C000EE0FFF1FEC5CFD4F31832083109233024A
:1009D0001092320224E029C00097B9F4E09131026C
:1009E00021E02E0F20933102F0E02091320230916D
:1009F0003302EE0FFF1FEC5CFD4F3183208310921A
:100A000033021092320223E010C020913202309162
:100A100033022536310558F007C0009741F4109293
:100A200033021092320203C025E020932E0220915F
:100A30003002222329F0892B11F42D9A01C02D9820
:100A4000FF91EF91DF91CF91BF91AF919F918F91E6
:100A50007F916F915F914F913F912F910F900FBEBA
:100A60000F901F901895ECE1F3E01382128288EE4C
:100A700093E0A0E0B0E084839583A683B78388E009
:100A800091E09183808385EC90E09587848784EC66
:100A900090E09787868780EC90E0918B808B81EC4B
:100AA00090E0938B828B82EC90E0958B848B86EC2C
:100AB00090E0978B868B118E128E138E148EE9EB3D
:100AC000F3E016821782108611861286138614862A
:100AD000158616861786108A118A128A138A148A36
:100AE000158A0895789484B5826084BD84B5816048
:100AF00084BD85B5826085BD85B5816085BD8091E9
:100B00006E00816080936E00109281008091810060
:100B10008260809381008091810081608093810058
:100B2000809180008160809380008091B10084601A
:100B30008093B1008091B00081608093B00080917B
:100B40007A00846080937A0080917A00826080933A
:100B50007A0080917A00816080937A0080917A0097
:100B6000806880937A001092C1001092FD03109269
:100B7000FE031092FF03109200041092BB03109228
:100B8000BC031092BD031092BE0360ED77E080E0DD
:100B900090E00E9485028CE193E09093FC038093A7
:100BA000FB030E948C000E94BF026093BB03709302
:100BB000BC038093BD039093BE0364E171E0809118
:100BC000FB039091FC030E944E036AE070E080E01A
:100BD00090E00E94850281E08093CF0386E00E942E
:100BE000B4000E948C00C1E0A6E04A2E512C612C7A
:100BF000712C0E94BF02672B682B692B41F40E9465
:100C0000BF02623071058105910508F409C10E9497
:100C1000BF02609318037093190380931A03909393
:100C20001B03C0901403D0901503E0901603F090BE
:100C300017036C157D058E059F0540F46093140322
:100C4000709315038093160390931703C0901403B9
:100C5000D0901503E0901603F09017039B01AC01B0
:100C60002C193D094E095F0969017A013AEFC31653
:100C7000D104E104F10408F4D3C060931403709329
:100C80001503809316039093170384EF91E0A0E07F
:100C9000B0E08093C7039093C803A093C903B093B7
:100CA000CA031092CB031092CC031092CD03109282
:100CB000CE038091BF039091C003A091C103B09176
:100CC000C2038093C3039093C403A093C503B0935E
:100CD000C6030E94BF026093BF037093C00380935A
:100CE000C1039093C2030E94BF026093BB03709341
:100CF000BC038093BD039093BE030E94BF026B01AF
:100D00007C0166E271E08091FB039091FC030E94FC
:100D10004E032AE041E050E060E070E08091FB0388
:100D20009091FC030E9463036DE271E08091FB03EC
:100D30009091FC030E944E032AE0B701A601809126
:100D4000FB039091FC030E9463036FE271E08091CA
:100D5000FB039091FC030E944E038091BF0390918E
:100D6000C003A091C103B091C203B701A601481B03
:100D7000590B6A0B7B0B2AE08091FB039091FC03DB
:100D80000E9463036FE271E08091FB039091FC038A
:100D90000E944E034091BF035091C0036091C10374
:100DA0007091C2038091C3039091C403A091C503C5
:100DB000B091C603481B590B6A0B7B0B2AE080914C
:100DC000FB039091FC030E94630361E371E0809157
:100DD000FB039091FC030E944E030E94BF02AB01F3
:100DE000BC012AE08091FB039091FC030E94630305
:100DF00063E371E08091FB039091FC030E94AC03DC
:100E000062E070E080E090E00E9485020E94BF02F4
:100E10006093BF037093C0038093C1039093C20398
:100E200087E00E9449028A3892404CF0C093080340
:100E300061E086E00E9419026AE371E008C0109246
:100E4000080360E086E00E94190269E471E08CE129
:100E500093E00E94AC0386E00E94490288319140F1
:100E60000CF4C3C280E00E944902BC01990F880BB8
:100E7000990B0E94710A2DE038E643E55BE30E947E
:100E8000D00A4B015C0160930D0370930E038093B5
:100E90000F039093100381E00E944902BC01990F57
:100EA000880B990B0E94710A2DE038E643E55BE35D
:100EB0000E94D00A6B017C016093090370930A03BE
:100EC00080930B0390930C0328EB3EE145E85EE32F
:100ED000C501B4010E94040A87FD65C02AE939E909
:100EE00049E95EE3C501B4010E946A0A1816ACF034
:100EF00028EB3EE145E85EE3C701B6010E94040A23
:100F000087FD15C02AE939E949E95EE3C701B60161
:100F10000E946A0A18165CF0B6C02AE939E949E964
:100F20005EE3C501B4010E946A0A1816E4F125E1E6
:100F30003EEA47E05FE3C701B6010E94040A87FD6D
:100F40000BC025E83BEE41E15FE3C701B6010E941B
:100F50006A0A18160CF09FC02EEA37E441EE5DE3F2
:100F6000C701B6010E94040A87FD13C029E939E9C7
:100F700049E15EE3C701B6010E946A0A18160CF443
:100F8000B2C06FECC62E60E3D62EEE24EA94F12CAC
:100F9000BAC020E030E0A901C701B6010E946A0A88
:100FA000811120C0A9C02EEA37E441EE5DE3C701FC
:100FB000B6010E94040A87FD0BC029E939E949E11D
:100FC0005EE3C701B6010E946A0A18160CF06BC0F6
:100FD00020E030E0A901C701B6010E946A0A882317
:100FE00009F469C028EB3EE145E85EE3C701B601BC
:100FF0000E94040A87FD0BC02AE939E949E95EE34A
:10100000C701B6010E946A0A18160CF075C025E1E6
:101010003EEA47E05FE3C701B6010E94040A87FD8C
:101020000BC025E83BEE41E15FE3C701B6010E943A
:101030006A0A18160CF047C020E030E0A901C5018B
:10104000B4010E946A0A882309F445C025E13EEAFA
:1010500047E05FE3C501B4010E94040A87FD56C062
:1010600025E83BEE41E15FE3C501B4010E946A0A55
:1010700018160CF44BC0FDE1CF2EF2EEDF2EEE245D
:10108000EA94F12C40C0E7E6CE2EE8E9DE2EEE240D
:10109000EA94F12C38C075E8C72E7AE7D72EEE24F3
:1010A000EA94F12C30C055EAC52E5AE5D52EEE242F
:1010B000EA94F12C28C04FEEC42E40E1D42EEE2449
:1010C000EA94F12C20C035EBC32E3AE4D32EEE2463
:1010D000EA94F12C18C02DE9C22E22E6D22EEE247D
:1010E000EA94F12C10C020E030E0A901C701B6015C
:1010F0000E946A0A811161CF97EEC92E98E1D92E1C
:10110000EE24EA94F12CC093130306C08FEBC82E93
:10111000DD24D394E12CF12C80911303811197C02D
:10112000C0901103D09012030D2C000CEE08FF08A4
:10113000F7FE14C0E0911C03F0911D030190F081B3
:10114000E02D6DE28CE193E0099544275527BA0123
:101150004C195D096E097F092AE003C02AE0B70136
:10116000A6018CE193E00E94630363E271E08CE1ED
:1011700093E00E944E036DE770E080E090E00E94F3
:1011800085028091110390911203803F910551F0E7
:101190008091110390911203019690931203809312
:1011A000110329C1C093130360E871E08CE193E05F
:1011B0000E94AC036FEE70E18FEF90E00E94E902B5
:1011C00069E571E08CE193E00E94AC0368EB7BE0A1
:1011D00080E090E00E9485026DE972E68FEF90E07A
:1011E0000E94E90267E771E08CE193E00E94AC03A2
:1011F00068EB7BE080E090E00E948502C12CD12C5E
:101200007601460157010E945C0A2FEFC21AD20AEA
:10121000E20AF20AA30192010E94B00B6815790557
:101220008A059B050CF4B4CF67EE78E18FEF90E070
:101230000E94E90262E971E08CE193E00E94AC0354
:1012400068EB7BE080E090E00E948502DACF35EA2F
:10125000C3163AE5D3063FEFE306F10449F465EA25
:101260007AE58FEF90E00E94E90260ED71E010C036
:101270004FEEC41640E1D4064FEFE406F10479F4D2
:101280006FEE70E18FEF90E00E94E9026DEE71E089
:101290008CE193E00E94AC030E94CB0245C057EE64
:1012A000C51658E1D5065FEFE506F10479F467EE5F
:1012B00078E18FEF90E00E94E90265E272E08CE154
:1012C00093E00E94AC030E94CB023FC085EBC8169E
:1012D0008AE4D8068FEFE806F10479F465EB7AE446
:1012E0008FEF90E00E94E9026BE072E08CE193E006
:1012F0000E94AC030E94CB0239C09DE9C91692E658
:10130000D9069FEFE906F10479F46DE972E68FEFF3
:1013100090E00E94E9026DEA71E08CE193E00E94A6
:10132000AC030E94CB0244C0ADE1CA16A2EEDA06BD
:10133000AFEFEA06F10449F46DE172EE8FEF90E051
:101340000E94E90266EB71E043C0BFECCB16B0E34C
:10135000DB06BFEFEB06F10449F46FEC70E38FEFAF
:1013600090E00E94E9026FEB71E032C027EEC216F6
:1013700028E1D2062FEFE206F10449F467EE78E1A6
:101380008FEF90E00E94E9026CED71E021C035E83A
:10139000C3163AE7D3063FEFE306F10449F465E8E4
:1013A0007AE78FEF90E00E94E9026AEF71E010C0E7
:1013B00047E6C41648E9D4064FEFE406F10471F499
:1013C00067E678E98FEF90E00E94E90264E172E05D
:1013D0008CE193E00E94AC030E94CB026CED70E0C4
:1013E00080E090E00E94850206C0109212031092E5
:1013F0001103109213030E94E601FBCBEE0FFF1FB7
:101400000590F491E02D09940E94AC0A08F48FEF46
:10141000089581E090E0F8940C94F10B8F929F92E4
:10142000AF92BF92CF92DF92EF92FF92CF93DF9372
:10143000EC01688179818A819B8161157105810543
:10144000910521F464E279ED8BE597E02DE133EF2E
:1014500041E050E00E94B00B49015A019B01AC01F0
:10146000A7EAB1E40E94CF0B6B017C01ACEEB4EFB4
:10147000A50194010E94DD0BDC01CB018C0D9D1DAB
:10148000AE1DBF1DB7FF03C00197A109B0488883F7
:101490009983AA83BB83BC01CD019F77DF91CF9154
:1014A000FF90EF90DF90CF90BF90AF909F908F9084
:1014B00008950E940E0A089580E091E00E940E0AAD
:1014C000089560930001709301018093020190934D
:1014D000030108950E94AC0A08F481E00895E8949D
:1014E00009C097FB3EF490958095709561957F4F6C
:1014F0008F4F9F4F9923A9F0F92F96E9BB2793951A
:10150000F695879577956795B795F111F8CFFAF429
:10151000BB0F11F460FF1BC06F5F7F4F8F4F9F4F5A
:1015200016C0882311F096E911C0772321F09EE8B8
:10153000872F762F05C0662371F096E8862F70E01E
:1015400060E02AF09A95660F771F881FDAF7880FF8
:101550009695879597F90895990F0008550FAA0B4E
:10156000E0E8FEEF16161706E807F907C0F01216B6
:101570001306E407F50798F0621B730B840B950BB9
:1015800039F40A2661F0232B242B252B21F408950E
:101590000A2609F4A140A6958FEF811D811D0895AB
:1015A0000E94E30A0C94540B0E94460B38F00E94F0
:1015B0004D0B20F0952311F00C943D0B0C94430B34
:1015C00011240C94880B0E94650B70F3959FC1F356
:1015D000950F50E0551F629FF001729FBB27F00DE1
:1015E000B11D639FAA27F00DB11DAA1F649F662736
:1015F000B00DA11D661F829F2227B00DA11D621F85
:10160000739FB00DA11D621F839FA00D611D221F3E
:10161000749F3327A00D611D231F849F600D211D22
:10162000822F762F6A2F11249F5750409AF0F1F0A5
:1016300088234AF0EE0FFF1FBB1F661F771F881F0E
:1016400091505040A9F79E3F510580F00C943D0BFE
:101650000C94880B5F3FE4F3983ED4F3869577951E
:101660006795B795F795E7959F5FC1F7FE2B880FB4
:10167000911D9695879597F9089597F99F6780E84A
:1016800070E060E008959FEF80EC089500240A94D4
:101690001616170618060906089500240A9412164D
:1016A0001306140605060895092E0394000C11F480
:1016B000882352F0BB0F40F4BF2B11F460FF04C02D
:1016C0006F5F7F4F8F4F9F4F089557FD9058440F86
:1016D000551F59F05F3F71F04795880F97FB991F91
:1016E00061F09F3F79F0879508951216130614064E
:1016F000551FF2CF4695F1DF08C0161617061806DB
:10170000991FF1CF86957105610508940895E894B5
:10171000BB2766277727CB0197F90895A1E21A2EF8
:10172000AA1BBB1BFD010DC0AA1FBB1FEE1FFF1F85
:10173000A217B307E407F50720F0A21BB30BE40BD5
:10174000F50B661F771F881F991F1A9469F760951C
:101750007095809590959B01AC01BD01CF010895D6
:10176000052E97FB1EF400940E94C70B57FD07D06F
:101770000E948E0B07FC03D04EF40C94C70B5095BF
:101780004095309521953F4F4F4F5F4F089590956D
:101790008095709561957F4F8F4F9F4F08950E9460
:1017A000E20BA59F900DB49F900DA49F800D911DFD
:1017B00011240895B7FF0C94CF0B0E94CF0B821B0E
:1017C000930B0895A29FB001B39FC001A39F700D1A
:1017D000811D1124911DB29F700D811D1124911D39
:0617E0000895F894FFCF0C
:1017E60001000000000000007D01F900460124010F
:1017F6003801C401564D4450565F317C315F564D19
:101806004450560D0A00564D4450455F003A323A50
:10181600007C005F564D445045004C696768747300
:10182600496E436172204F6E004C69676874734954
:101836006E436172204F46460042544E5F564F4CEF
:10184600504C5553204175746F52756E4D61676EDD
:1018560069746F6C6C610042544E5F4D4F44452075
:101866004175746F52756E4D61676E69746F6C6CFD
:10187600610042544E5F4E455854204175746F5274
:10188600756E4D61676E69746F6C6C610042544E83
:101896005F4D4F44450042544E5F4D5554450042FE
:1018A600544E5F4D454D4F4E4558545F414E445F33
:1018B60042544E5F564F4C504C55530042544E5F67
:1018C6004D454D4F4E4558545F414E445F42544E30
:1018D6005F564F4C4D494E55530042544E5F4D4551
:1018E6004D4F4E4558545F414E445F42544E5F4201
:1018F60041434B0042544E5F4D454D4F4E45585463
:0E1906005F414E445F42544E5F4E45585400C0
:107800000C94343C0C94513C0C94513C0C94513CE1
:107810000C94513C0C94513C0C94513C0C94513CB4
:107820000C94513C0C94513C0C94513C0C94513CA4
:107830000C94513C0C94513C0C94513C0C94513C94
:107840000C94513C0C94513C0C94513C0C94513C84
:107850000C94513C0C94513C0C94513C0C94513C74
:107860000C94513C0C94513C11241FBECFEFD8E036
:10787000DEBFCDBF11E0A0E0B1E0ECE9FFE702C060
:1078800005900D92A230B107D9F712E0A2E0B1E065
:1078900001C01D92AD30B107E1F70E942D3D0C945F
:1078A000CC3F0C94003C982F959595959595959582
:1078B000905D8F708A307CF0282F295A8091C0000B
:1078C00085FFFCCF9093C6008091C00085FFFCCF60
:1078D0002093C6000895282F205DF0CF982F809127
:1078E000C00085FFFCCF9093C6000895EF92FF92F1
:1078F0000F931F93EE24FF2487018091C00087FD22
:1079000017C00894E11CF11C011D111D81E4E8164B
:1079100082E4F8068FE0080780E0180770F3E09132
:107920000401F091050109958091C00087FFE9CF1E
:107930008091C6001F910F91FF90EF9008950E94D3
:10794000763C982F8091C00085FFFCCF9093C600B5
:1079500091362CF490330CF09053892F089597555D
:10796000892F08951F930E949F3C182F0E949F3CCF
:107970001295107F810F1F9108951F93182F882350
:1079800021F00E94763C1150E1F71F9108951F935A
:10799000182F0E94763C803249F0809103018F5F5E
:1079A000809303018530C1F01F9108958091C0003C
:1079B00085FFFCCF84E18093C6008091C00085FFE5
:1079C000FCCF1093C6008091C00085FFFCCF80E102
:1079D0008093C6001F910895E0910401F091050184
:1079E00009951F9108950E94763C803241F0809164
:1079F00003018F5F80930301853081F008958091AA
:107A0000C00085FFFCCF84E18093C6008091C00058
:107A100085FFFCCF80E18093C6000895E0910401CA
:107A2000F09105010995089540E951E08823A1F0FE
:107A30002D9A28EE33E0FA013197F1F721503040CA
:107A4000D1F72D9828EE33E0FA013197F1F7215064
:107A50003040D1F7815061F708953F924F925F9285
:107A60006F927F928F929F92AF92BF92CF92DF924E
:107A7000EF92FF920F931F93CF93DF93000080E16B
:107A80008093C4001092C50088E18093C10086E015
:107A90008093C2005098589A259A81E00E94143D24
:107AA00024E1F22E9EE1E92E85E9D82E0FE0C02ECA
:107AB00010E1B12EAA24A394B1E49B2EA6E58A2E50
:107AC000F2E57F2EE0E26E2E79E4572E63E5462E36
:107AD00050E5352E0E94763C8033B1F18133B9F107
:107AE000803409F46FC0813409F476C0823409F41B
:107AF00085C0853409F488C0803531F1823521F1A3
:107B0000813511F1853509F485C0863509F48DC0BC
:107B1000843609F496C0843709F403C1853709F423
:107B200072C1863709F466C0809103018F5F80932C
:107B30000301853079F6E0910401F0910501099582
:107B40000E94763C803351F60E94F33CC3CF0E94E2
:107B5000763C803249F78091C00085FFFCCFF092DF
:107B6000C6008091C00085FFFCCF9092C600809136
:107B7000C00085FFFCCF8092C6008091C00085FFC9
:107B8000FCCF7092C6008091C00085FFFCCF609250
:107B9000C6008091C00085FFFCCF5092C600809146
:107BA000C00085FFFCCF4092C6008091C00085FFD9
:107BB000FCCF3092C6008091C00085FFFCCFB09210
:107BC000C60088CF0E94763C863808F4BDCF0E945C
:107BD000763C0E94F33C7ECF0E94763C803809F4CC
:107BE0009CC0813809F40BC1823809F43CC1883942
:107BF00009F48FC080E00E94C73C6CCF84E10E94F2
:107C0000BD3C0E94F33C66CF85E00E94BD3C0E94D3
:107C1000F33C60CF0E94763C809306010E94763C44
:107C2000809307010E94F33C55CF0E94763C80333D
:107C300009F41DC183E00E94BD3C80E00E94C73C66
:107C400049CF0E94763C809309020E94763C809343
:107C5000080280910C028E7F80930C020E94763C79
:107C6000853409F415C18091080290910902892B8D
:107C700089F000E010E00E94763CF801E85FFE4FDA
:107C800080830F5F1F4F80910802909109020817AF
:107C9000190788F30E94763C803209F045CF809125
:107CA0000C0280FF01C16091060170910701660F0F
:107CB000771F7093070160930601A0910802B091AD
:107CC00009021097C9F0E8E0F1E09B01AD014E0F09
:107CD0005F1FF999FECF32BD21BD819180BDFA9A17
:107CE000F99A2F5F3F4FE417F50799F76A0F7B1F4B
:107CF00070930701609306018091C00085FFFCCF5F
:107D0000F092C6008091C00085FFFCCFB092C60003
:107D1000E1CE83E00E94C73CDDCE82E00E94C73CFA
:107D2000D9CE0E94763C809309020E94763C8093D3
:107D300008028091060190910701880F991F909386
:107D40000701809306010E94763C853409F4A6C0A1
:107D500080910C028E7F80930C020E94763C8032D0
:107D600009F0B8CE8091C00085FFFCCFF092C6002C
:107D7000609108027091090261157105B9F140E046
:107D800050E080910C02A82FA170B82FB27011C0E2
:107D9000BB2309F45CC0E0910601F0910701319624
:107DA000F0930701E09306014F5F5F4F46175707B7
:107DB000E8F4AA2369F3F999FECF209106013091E6
:107DC000070132BD21BDF89A90B58091C00085FFB2
:107DD000FCCF9093C6002F5F3F4F30930701209355
:107DE00006014F5F5F4F4617570718F38091C00099
:107DF00085FDE5CE8091C00085FFF8CFE0CE81E023
:107E00000E94C73C67CE0E94763C803209F08CCE3F
:107E10008091C00085FFFCCFF092C6008091C00029
:107E200085FFFCCFE092C6008091C00085FFFCCFAB
:107E3000D092C6008091C00085FFFCCFC092C600E2
:107E40008091C00085FFFCCFB092C60043CEE09188
:107E50000601F091070194918091C00085FFFCCF4D
:107E60009093C6009CCF80E10E94C73C33CE0E9415
:107E7000763C0E94763C182F0E94763C112309F430
:107E800083C0113009F484C08FE00E94C73C22CE29
:107E900080910C02816080930C02E5CE80910C02EF
:107EA000816080930C0259CF809107018823880F4D
:107EB000880B8A2180930B02809106019091070123
:107EC000880F991F90930701809306018091080203
:107ED00080FF09C080910802909109020196909359
:107EE000090280930802F894F999FECF1127E091D6
:107EF0000601F0910701C8E0D1E08091080290915D
:107F00000902103091F40091570001700130D9F34B
:107F100003E000935700E89500915700017001308D
:107F2000D9F301E100935700E89509901990009169
:107F3000570001700130D9F301E000935700E89534
:107F40001395103498F011270091570001700130FB
:107F5000D9F305E000935700E895009157000170B0
:107F60000130D9F301E100935700E895329602976A
:107F700009F0C7CF103011F00296E5CF112480919F
:107F8000C00085FFB9CEBCCE8EE10E94C73CA2CD19
:0C7F900085E90E94C73C9ECDF894FFCF0D
:027F9C00800063
:040000030000780081
:00000001FF