:100000000C9462000C948A000C948A000C948A0070
:100010000C948A000C948A000C948A000C947A0345
:100020000C948A000C948A000C948A000C948A0028
:100030000C948A000C948A000C948A000C948A0018
:100040000C9413050C948A000C9418080C944A081C
:100050000C948A000C948A000C948A000C948A00F8
:100060000C948A000C948A00000000080002010031
:100070000003040700000000000000000102040863
:100080001020408001020408102001020408102002
:10009000040404040404040402020202020203032E
:1000A00003030303000000002300260029000000D2
:1000B0000000250028002B0000000000240027007D
:1000C0002A007A0811241FBECFEFD8E0DEBFCDBFD3
:1000D00011E0A0E0B1E0E0E1F5E102C005900D9291
:1000E000AA3FB107D9F723E0AAEFB1E001C01D9202
:1000F000AD37B207E1F710E0C4ECD0E004C02297BE
:10010000FE010E94820AC23CD107C9F70E94BE08C4
:100110000C94860A0C94000061E086E00E943B0685
:1001200026E040E458E360E070E080EE92E00C945A
:10013000B6078F929F92AF92BF92CF92DF92EF92CB
:10014000FF92809102020E94F505BC01882777FD8D
:100150008095982F0E9428092DE038E643E55BE35F
:100160000E94DC096093FE017093FF0180930002FE
:1001700090930102809100010E94F505BC0188273F
:1001800077FD8095982F0E9428092DE038E643E5F9
:100190005BE30E94DC096B017C016093FA017093C0
:1001A000FB018093FC019093FD018090FE019090F3
:1001B000FF01A0900002B090010221E73DE34AE870
:1001C0005EE3C501B4010E94D80987FD74C021EE29
:1001D0003AE744E95EE3C501B4010E94220918161A
:1001E0000CF469C021E73DE34AE85EE3C701B601CC
:1001F0000E94D80987FD13C021EE3AE744E95EE387
:10020000C701B6010E94220918164CF060912A011C
:1002100070912B0180912C0190912D01E0C021E77C
:100220003DE34AE05FE3C701B6010E94D80987FDBC
:1002300013C029E23CE54FE05FE3C701B6010E942D
:10024000220918164CF060913A0170913B0180919F
:100250003C0190913D01C3C02FE832EC45EF5DE3D6
:10026000C701B6010E94D80987FD13C029E23CE509
:100270004FE05EE3C701B6010E94220918164CF058
:100280006091320170913301809134019091350178
:10029000A6C020E030E0A901C701B6010E942209F2
:1002A000811109C060913601709137018091380148
:1002B0009091390194C02FE832EC45EF5DE3C7011E
:1002C000B6010E94D80987FD13C029E23CE54FE042
:1002D0005EE3C701B6010E94220918164CF0609136
:1002E000460170914701809148019091490177C082
:1002F00020E030E0A901C701B6010E942209811166
:1003000009C060913E0170913F0180914001909140
:10031000410165C021E73DE34AE85EE3C701B6015C
:100320000E94D80987FD0BC021EE3AE744E95EE35D
:10033000C701B6010E94220918160CF0B3CF21E7BD
:100340003DE34AE05FE3C701B6010E94D80987FD9B
:1003500013C029E23CE54FE05FE3C701B6010E940C
:10036000220918164CF060914E0170914F01809156
:1003700050019091510133C020E030E0A901C50146
:10038000B4010E942209811109C060910601709197
:100390000701809108019091090121C021E73DE307
:1003A0004AE05FE3C501B4010E94D80987FD13C08C
:1003B00029E23CE54FE05FE3C501B4010E94220958
:1003C00018164CF060910A0170910B0180910C019C
:1003D00090910D0104C06FEB71E080E090E0FF9020
:1003E000EF90DF90CF90BF90AF909F908F90089547
:1003F000CF92DF92EF92FF920E9499006B017C01F5
:100400008091460190914701A0914801B091490126
:10041000C816D906EA06FB06C1F420E230E0B701AF
:10042000A60184E092E00E94B2046AE771E080EEE7
:1004300092E00E940F0960E086E00E94740668E77F
:1004400070E080E090E00E94800580913E019091F4
:100450003F01A0914001B0914101C816D906EA06BA
:10046000FB06C1F420E230E0B701A60184E092E08F
:100470000E94B20467E971E080EE92E00E940F09E9
:1004800060E086E00E94740668E770E080E090E03B
:100490000E9480058091360190913701A09138012A
:1004A000B0913901C816D906EA06FB06C1F420E26C
:1004B00030E0B701A60184E092E00E94B2046FEC44
:1004C00071E080EE92E00E940F0960E086E00E94F9
:1004D000740668E770E080E090E00E9480058091FB
:1004E0004E0190914F01A0915001B0915101C81659
:1004F000D906EA06FB06C1F420E230E0B701A60106
:1005000084E092E00E94B20465EB71E080EE92E03C
:100510000E940F0960E086E00E94740668E770E0C0
:1005200080E090E00E948005809106019091070193
:10053000A0910801B0910901C816D906EA06FB0688
:10054000C1F420E230E0B701A60184E092E00E940D
:10055000B20467E571E080EE92E00E940F0960E06E
:1005600086E00E94740668E770E080E090E00E94F8
:10057000800580910A0190910B01A0910C01B0912E
:100580000D01C816D906EA06FB06C1F420E230E0E8
:10059000B701A60184E092E00E94B20460E671E037
:1005A00080EE92E00E940F0960E086E00E947406EF
:1005B00068E770E080E090E00E9480058091320161
:1005C00090913301A0913401B0913501C816D9063C
:1005D000EA06FB06C1F420E230E0B701A60184E0A0
:1005E00092E00E94B20469E671E080EE92E00E941F
:1005F0000F0960E086E00E94740668E770E080E022
:1006000090E00E9480058091360190913701A09181
:100610003801B0913901C816D906EA06FB06C1F4C3
:1006200020E230E0B701A60184E092E00E94B2042B
:1006300066E871E080EE92E00E940F0960E086E0DB
:100640000E94740668E770E080E090E00E948005F8
:1006500080913A0190913B01A0913C01B0913D0104
:10066000C816D906EA06FB06C1F420E230E0B7015D
:10067000A60184E092E00E94B20464EA71E080EE98
:1006800092E00E940F0960E086E00E94740668E72D
:1006900070E080E090E00E94800580912A019091B6
:1006A0002B01A0912C01B0912D01C816D906EA06A4
:1006B000FB06C1F420E230E0B701A60184E092E03D
:1006C0000E94B2046EEB71E080EE92E00E940F098E
:1006D00060E086E00E94740668E770E080E090E0E9
:1006E0000E94800561E086E0FF90EF90DF90CF9060
:1006F0000C9474061F920F920FB60F9211242F9331
:100700003F934F935F936F937F938F939F93AF9399
:10071000BF93EF93FF93809106020E94AA06209157
:100720000A0230910B022F5F3F4F30930B02209350
:100730000A0290910902953618F096E0909305020E
:10074000909105029430C9F128F4923069F0933009
:10075000D1F05EC0953009F451C0963009F058C010
:1007600091E09093D60251C0811152C020910A02AB
:1007700030910B022436310508F442C01092D602A3
:10078000109209021CC0813009F042C0E0910902B8
:1007900091E09E0F90930902F0E020910A023091BF
:1007A0000B02EE0FFF1FEB5FFD4F30872783109288
:1007B0000B0210920A0294E029C0811117C0E09147
:1007C000090291E09E0F90930902F0E020910A0245
:1007D00030910B02EE0FFF1FEB5FFD4F3087278339
:1007E00010920B0210920A0293E010C020910A02AC
:1007F00030910B022536310558F007C0811108C031
:1008000010920B0210920A0203C095E09093050229
:10081000909108029923B9F081110AC080910702D2
:10082000882321F08091070261E009C02D9A0BC056
:1008300080910702882331F08091070260E00E94D6
:10084000740601C02D98FF91EF91BF91AF919F91D8
:100850008F917F916F915F914F913F912F910F9069
:100860000FBE0F901F901895CF93DF93EB0110925E
:10087000700061E083E00E943B0660E083E00E943C
:1008800074069E01442737FD4095542F60E47FE1B4
:1008900080E090E00E94610A81E08093B00089E0EE
:1008A0008093B1002093B3008BEA289F212D11245F
:1008B00026952093B400DF91CF9108958F929F9257
:1008C000AF92BF92CF92DF92EF92FF926A017B01CB
:1008D000453051056105710500F10E945D054B0130
:1008E0005C0184E0C81AD108E108F108C80CD91CE1
:1008F000EA1CFB1CC814D904EA04FB0438F40E9467
:100900005D0586169706A806B906C8F30E945D0520
:100910006C157D058E059F05C8F3FF90EF90DF9065
:10092000CF90BF90AF909F908F9008952091B0008E
:1009300020622093B0006115710529F0AB0160E0E1
:1009400070E00C945E0408952091B0002F7D2093F8
:10095000B0006115710529F0AB0160E070E00C9406
:100960005E0408958F929F92AF92BF92CF92DF92D2
:10097000EF92FF92CF93DF93EC014A015B01790183
:1009800066E270E00E94340468E273E2CE010E94E5
:10099000960464E971E1CE010E94A404C7010197A5
:1009A000C12CD12C7601C39404C0CC0CDD1CEE1CF0
:1009B000FF1C8A95D2F7C114D104E104F104F9F0C7
:1009C000D701C60188219921AA21BB2160E372E0E9
:1009D000892B8A2B8B2B31F0CE010E9496046AE979
:1009E00076E005C0CE010E94960460E372E0CE017D
:1009F0000E94A404F694E794D794C794DCCF60E3F4
:100A000072E0CE010E94960460E070E0CE01DF91BA
:100A1000CF91FF90EF90DF90CF90BF90AF909F90DD
:100A20008F900C94A4041F920F920FB60F92112472
:100A30002F933F938F939F93AF93BF938091D8024F
:100A40009091D902A091DA02B091DB023091D702E5
:100A500023E0230F2D3720F40196A11DB11D05C001
:100A600026E8230F0296A11DB11D2093D702809383
:100A7000D8029093D902A093DA02B093DB0280915E
:100A8000DC029091DD02A091DE02B091DF020196BE
:100A9000A11DB11D8093DC029093DD02A093DE02C4
:100AA000B093DF02BF91AF919F918F913F912F91B2
:100AB0000F900FBE0F901F9018953FB7F89480913C
:100AC000DC029091DD02A091DE02B091DF0226B53A
:100AD000A89B05C02F3F19F00196A11DB11D3FBF76
:100AE0006627782F892F9A2F620F711D811D911D06
:100AF00042E0660F771F881F991F4A95D1F7089526
:100B00008F929F92AF92BF92CF92DF92EF92FF921D
:100B10006B017C010E945D054B015C01C114D10495
:100B2000E104F104F1F00E9421090E945D056819B9
:100B300079098A099B09683E73408105910570F324
:100B400021E0C21AD108E108F10888EE880E83E09E
:100B5000981EA11CB11CC114D104E104F10429F7B1
:100B6000DDCFFF90EF90DF90CF90BF90AF909F9040
:100B70008F900895789484B5826084BD84B5816037
:100B800084BD85B5826085BD85B5816085BDEEE695
:100B9000F0E0808181608083E1E8F0E01082808174
:100BA00082608083808181608083E0E8F0E08081E2
:100BB00081608083E1EBF0E0808184608083E0EB02
:100BC000F0E0808181608083EAE7F0E080818460EA
:100BD0008083808182608083808181608083808146
:100BE000806880831092C10008958E3008F08E5086
:100BF00087702091560190E4299F90011124822B47
:100C000080937C0080917A00806480937A00809148
:100C10007A0086FDFCCF809178002091790090E0E9
:100C2000922B0895833081F028F4813099F082303E
:100C3000A1F008958730A9F08830B9F08430D1F45C
:100C4000809180008F7D03C0809180008F7780939A
:100C50008000089584B58F7702C084B58F7D84BDF0
:100C600008958091B0008F7703C08091B0008F7D90
:100C70008093B0000895CF93DF9390E0FC01E45897
:100C8000FF4F2491FC01E057FF4F8491882349F1E5
:100C900090E0880F991FFC01E854FF4FA591B49193
:100CA00082559F4FFC01C591D4919FB7611108C037
:100CB000F8948C91209582238C93888182230AC09A
:100CC000623051F4F8948C91322F309583238C93B9
:100CD0008881822B888304C0F8948C91822B8C931A
:100CE0009FBFDF91CF9108950F931F93CF93DF9311
:100CF0001F92CDB7DEB7282F30E0F901E859FF4F3A
:100D00008491F901E458FF4F1491F901E057FF4F26
:100D100004910023C9F0882321F069830E94120600
:100D20006981E02FF0E0EE0FFF1FE255FF4FA59124
:100D3000B4919FB7F8948C91611103C010958123F1
:100D400001C0812B8C939FBF0F90DF91CF911F919A
:100D50000F910895CF93DF93282F30E0F901E859E0
:100D6000FF4F8491F901E458FF4FD491F901E05706
:100D7000FF4FC491CC2391F081110E941206EC2FF9
:100D8000F0E0EE0FFF1FEC55FF4FA591B4912C91B1
:100D90002D2381E090E021F480E002C080E090E02B
:100DA000DF91CF910895FC01818D228D90E0805CD0
:100DB0009F4F821B91098F7399270895FC01918D94
:100DC000828D981731F0828DE80FF11D858D90E0AE
:100DD00008958FEF9FEF0895FC01918D828D9817F4
:100DE00061F0828DDF01A80FB11D5D968C91928D0F
:100DF0009F5F9F73928F90E008958FEF9FEF08950C
:100E000080E798E0892B49F080E090E0892B29F079
:100E10000E94700881110C9400000895FC01848DDB
:100E2000DF01A80FB11DA35ABF4F2C91848D90E014
:100E300001968F739927848FA689B7892C93A089EF
:100E4000B1898C9180648C93938D848D981306C0A6
:100E50000288F389E02D80818F7D80830895CF9370
:100E6000DF93EC01888D8823C9F0EA89FB898081B2
:100E700085FD05C0A889B9898C9186FD0FC00FB684
:100E800007FCF5CF808185FFF2CFA889B9898C91C5
:100E900085FFEDCFCE010E940E07E7CFDF91CF9106
:100EA0000895CF92DF92FF920F931F93CF93DF931A
:100EB0001F92CDB7DEB76C0181E0D60158968C93B6
:100EC00058975B969C915B975C968C915C97981376
:100ED00007C05096ED91FC915197808185FD2EC001
:100EE000F601038D10E00F5F1F4F0F731127F02ED7
:100EF000F601848DF81211C00FB607FCF9CFD601A8
:100F00005096ED91FC915197808185FFF1CFC601FC
:100F100069830E940E076981EBCF838DE80FF11D75
:100F2000E35AFF4F6083D6015B960C935B97529612
:100F3000ED91FC915397808180620CC0D60156964A
:100F4000ED91FC91579760835096ED91FC915197EC
:100F500080818064808381E090E00F90DF91CF9169
:100F60001F910F91FF90DF90CF900895BF92CF9285
:100F7000DF92EF92FF92CF93DF93EC016A017B0146
:100F8000B22EE889F98982E08083411581EE580705
:100F900061057105A1F060E079E08DE390E0A701C3
:100FA00096010E943F0A2150310941095109569585
:100FB000479537952795211580E1380798F0E889FE
:100FC000F989108260E874E88EE190E0A70196014B
:100FD0000E943F0A21503109410951095695479510
:100FE00037952795EC85FD853083EE85FF85208339
:100FF000188EEC89FD89B082EA89FB898081806145
:101000008083EA89FB89808188608083EA89FB8903
:10101000808180688083EA89FB8980818F7D8083DD
:10102000DF91CF91FF90EF90DF90CF90BF90089528
:101030001F920F920FB60F9211242F938F939F93AD
:10104000EF93FF93E091F002F091F1028081E09143
:10105000F602F091F70282FD12C090818091F902B0
:101060008F5F8F732091FA02821751F0E091F9029D
:10107000F0E0E052FD4F958F8093F90201C080812E
:10108000FF91EF919F918F912F910F900FBE0F9035
:101090001F9018951F920F920FB60F9211242F9345
:1010A0003F934F935F936F937F938F939F93AF93F0
:1010B000BF93EF93FF9380EE92E00E940E07FF91A3
:1010C000EF91BF91AF919F918F917F916F915F91C0
:1010D0004F913F912F910F900FBE0F901F90189539
:1010E00080EE92E00E94D30621E0892B09F420E0F3
:1010F000822F08951092E3021092E20288EE93E0AC
:10110000A0E0B0E08093E4029093E502A093E602B1
:10111000B093E7028CED91E09093E1028093E002BE
:1011200085EC90E09093ED028093EC0284EC90E0EB
:101130009093EF028093EE0280EC90E09093F102A6
:101140008093F00281EC90E09093F3028093F2029E
:1011500082EC90E09093F5028093F40286EC90E0AC
:101160009093F7028093F6021092F9021092FA021D
:101170001092FB021092FC02089508950E94BA0595
:101180000E94BD080E948C00C0E0D7E00E94F801D8
:101190002097E1F30E940007F9CFCF92DF92EF9200
:1011A000FF920F931F93CF93DF937C016A01EB01B2
:1011B00000E010E00C151D0571F06991D701ED916B
:1011C000FC910190F081E02DC7010995892B19F060
:1011D0000F5F1F4FEFCFC801DF91CF911F910F918C
:1011E000FF90EF90DF90CF9008956115710581F029
:1011F000DB010D900020E9F7AD0141505109461B7C
:10120000570BDC01ED91FC910280F381E02D0994F4
:1012100080E090E0089568EE71E00C94F5080F937B
:101220001F93CF93DF93EC010E94F5088C01CE0150
:101230000E940B09800F911FDF91CF911F910F9199
:101240000895089540D008F481E00895E89409C015
:1012500097FB3EF490958095709561957F4F8F4FE9
:101260009F4F9923A9F0F92F96E9BB279395F695FF
:10127000879577956795B795F111F8CFFAF4BB0F7D
:1012800011F460FF1BC06F5F7F4F8F4F9F4F16C0E1
:10129000882311F096E911C0772321F09EE8872F6B
:1012A000762F05C0662371F096E8862F70E060E027
:1012B0002AF09A95660F771F881FDAF7880F9695A0
:1012C000879597F90895990F0008550FAA0BE0E844
:1012D000FEEF16161706E807F907C0F012161306F8
:1012E000E407F50798F0621B730B840B950B39F438
:1012F0000A2661F0232B242B252B21F408950A269E
:1013000009F4A140A6958FEF811D811D089597F9DD
:101310009F6780E870E060E008959FEF80EC08959B
:1013200000240A94161617061806090608950024C4
:101330000A9412161306140605060895092E03943E
:10134000000C11F4882352F0BB0F40F4BF2B11F4B2
:1013500060FF04C06F5F7F4F8F4F9F4F089557FD11
:101360009058440F551F59F05F3F71F04795880F13
:1013700097FB991F61F09F3F79F0879508951216AA
:1013800013061406551FF2CF4695F1DF08C0161656
:1013900017061806991FF1CF869571056105089407
:1013A0000895E894BB2766277727CB0197F908951E
:1013B0008ADF08F48FEF08950BD0C0CFB1DF28F09B
:1013C000B6DF18F0952309F0A2CFA7CF1124EACFFA
:1013D000C6DFA0F3959FD1F3950F50E0551F629F94
:1013E000F001729FBB27F00DB11D639FAA27F00D7E
:1013F000B11DAA1F649F6627B00DA11D661F829FA5
:101400002227B00DA11D621F739FB00DA11D621F89
:10141000839FA00D611D221F749F3327A00D611DA6
:10142000231F849F600D211D822F762F6A2F112488
:101430009F5750408AF0E1F088234AF0EE0FFF1FDB
:10144000BB1F661F771F881F91505040A9F79E3F12
:10145000510570F05CCFA6CF5F3FECF3983EDCF314
:10146000869577956795B795F795E7959F5FC1F74F
:10147000FE2B880F911D9695879597F90895A1E207
:101480001A2EAA1BBB1BFD010DC0AA1FBB1FEE1FFE
:10149000FF1FA217B307E407F50720F0A21BB30B49
:1014A000E40BF50B661F771F881F991F1A9469F7C5
:1014B00060957095809590959B01AC01BD01CF0121
:1014C0000895052E97FB1EF400940E94780A57FD9C
:1014D00007D00E943F0A07FC03D04EF40C94780A10
:1014E00050954095309521953F4F4F4F5F4F089550
:1014F00090958095709561957F4F8F4F9F4F089580
:10150000EE0FFF1F0590F491E02D0994F894FFCFA2
:1015100001005DA2FF009D62FF001DE2FF00DD22D1
:10152000FF00FD02FF003DC2FF001FE0FF0057A8C3
:10153000FF006F90FF009768FF006798FF004FB0B3
:10154000FF00CF30FF00E718FF00857AFF00EF10A3
:10155000FF00C738FF00A55AFF00BD42FF00B54A93
:10156000FF00AD52FF000142544E5F4D4F44450015
:1015700042544E5F4D5554450042544E5F4D454DCB
:101580004F4E4558545F414E445F42544E5F564F54
:101590004C504C55530042544E5F4D454D4F4E45B7
:1015A00058545F414E445F42544E5F564F4C4D4934
:1015B0004E55530042544E5F4D454D4F4E45585485
:1015C0005F414E445F42544E5F4241434B004254A0
:1015D0004E5F4D454D4F4E4558545F414E445F421E
:1015E000544E5F4E45585400000000005107CD088E
:1015F000D306EC06DE062F070D0A006E616E006949
:0A1600006E66006F7666002E000093
:00000001FF
